:1000000079EF0AF00000000000EF00F000000000AF
:0A0010000000000000000000F3D71C
:10001C000450085E0550D8A0053C095E0650D8A0D7
:10002C00063C0A5E0750D8A0073C0B5E0336070E51
:10003C000C6E0334083609360A360B36045003A00E
:10004C000ED0085E0550D8A0053C095E0650D8A01D
:10005C00063C0A5E0750D8A0073C0B5E0DD0082664
:10006C000550D8B0053C09260650D8B0063C0A26E7
:10007C000750D8B0073C0B2603360C2EDAD70234C7
:10008C00083609360A360B36045003A00ED0085E2B
:10009C000550D8A0053C095E0650D8A0063C0A5E67
:1000AC000750D8A0073C0B5E0DD008260550D8B0E1
:1000BC00053C09260650D8B0063C0A260750D8B095
:1000CC00073C0B260236070E0C6E02340836093636
:1000DC000A360B36045002A00ED0085E0550D8A08C
:1000EC00053C095E0650D8A0063C0A5E0750D8A015
:1000FC00073C0B5E0DD008260550D8B0053C0926F0
:10010C000650D8B0063C0A260750D8B0073C0B2640
:10011C0002360C2EDAD70134083609360A360B367D
:10012C00045002A00ED0085E0550D8A0053C095E14
:10013C000650D8A0063C0A5E0750D8A0073C0B5EC0
:10014C000DD008260550D8B0053C09260650D8B06D
:10015C00063C0A260750D8B0073C0B260136070E82
:10016C000C6E0134083609360A360B36045001A0E1
:10017C000ED0085E0550D8A0053C095E0650D8A0EC
:10018C00063C0A5E0750D8A0073C0B5E0DD0082633
:10019C000550D8B0053C09260650D8B0063C0A26B6
:1001AC000750D8B0073C0B2601360C2EDAD700349A
:1001BC00083609360A360B36045001A00ED0085EFC
:1001CC000550D8A0053C095E0650D8A0063C0A5E36
:1001DC000750D8A0073C0B5E0DD008260550D8B0B0
:1001EC00053C09260650D8B0063C0A260750D8B064
:1001FC00073C0B260036070E0C6E00340836093609
:10020C000A360B36045000A00ED0085E0550D8A05C
:10021C00053C095E0650D8A0063C0A5E0750D8A0E3
:10022C00073C0B5E0DD008260550D8B0053C0926BE
:10023C000650D8B0063C0A260750D8B0073C0B260F
:10024C0000360C2EDAD700B00ED00450082605501C
:10025C00D8B0053C09260650D8B0063C0A260750F3
:08026C00D8B0073C0B2612007C
:10027400D3C000F0898A000000BE02D08C9E01D059
:100284008C8E00BC02D08C9C01D08C8C00BA02D025
:100294008C9A01D08C8A00B802D08C9801D08C88BA
:1002A4000000899A0000898A000000B602D08C9E62
:1002B40001D08C8E00B402D08C9C01D08C8C00B206
:1002C40002D08C9A01D08C8A00B002D08C9801D0D4
:0A02D4008C880000899A00001200D7
:1002DE000B1E0A1E091E081E082AD8B4092AD8B4F5
:0802EE000A2AD8B40B2A120001
:1002F6008988030E0C6E970E0D6E0D2EFED70C2EF2
:0E030600FCD700000000D0C0D3F0B1DF120021
:100314000450000A12E10550000A0FE10650000AD9
:100324000CE10750000A09E1FF0E006EFF0E016E9A
:10033400FF0E026E7F0E036E97D00C6A07BE0C2A66
:100344000D6A0B6A0A6A096A086A035002100110EE
:100354000010D8B484D0035007180E6E0EBE0D1EC4
:1003640007AE0BD0041E051E061E071E042AD8B4B1
:10037400052AD8B4062AD8B4072A03AE0BD0001E27
:10038400011E021E031E002AD8B4012AD8B4022A70
:10039400D8B4032A035007100E6E0EBE1CD03CDEE8
:1003A4000CBE36D00DAE5BD0001E011E021E031E15
:1003B400002AD8B4012AD8B4022AD8B4032A081EC1
:1003C400091E0A1E0B1E082AD8B4092AD8B40A2A00
:1003D400D8B40B2A44D007AE15D003BE0DD00350B9
:1003E4000B6E02500A6E0150096E0050086E036ACB
:1003F400026A016A006AD6D7036A026A016A006A5D
:10040400002A000C031E021E011E001E0C8EC7D7FC
:10041400082AD8B4092AD8B40A2AD8B40B2A045012
:10042400085CD8A4BFD70550095CD8A4BBD7065034
:100434000A5CD8A4B7D707500B5CD8A4B3D70B6A0F
:100444000A6A096A086A002AD8B4012AD8B4022AB6
:10045400D8B4032A03AEA6D70E6A0E88FF0C0E6A20
:0A0464000CA001D03ADF000F1200D7
:10046E004E0E0001D26F30D0300ED26F8DD0310EC5
:10047E00D26F8AD0320ED26F87D0330ED26F84D025
:10048E00340ED26F81D0350ED26F7ED0360ED26F33
:10049E007BD0370ED26F78D0380ED26F75D0390E22
:1004AE00D26F72D0410ED26F6FD0420ED26F6CD01F
:1004BE00430ED26F69D0440ED26F66D0450ED26F06
:1004CE0063D0460ED26F60D0000ED11902E1000E3D
:1004DE00D019CAE0000ED11902E1010ED019C7E001
:1004EE00000ED11902E1020ED019C4E0000ED1198E
:1004FE0002E1030ED019C1E0000ED11902E1040E83
:10050E00D019BEE0000ED11902E1050ED019BBE0E4
:10051E00000ED11902E1060ED019B8E0000ED11965
:10052E0002E1070ED019B5E0000ED11902E1080E56
:10053E00D019B2E0000ED11902E1090ED019AFE0C8
:10054E00000ED11902E10A0ED019ACE0000ED1193D
:10055E0002E10B0ED019A9E0000ED11902E10C0E2A
:10056E00D019A6E0000ED11902E10D0ED019A3E0AC
:10057E00000ED11902E10E0ED019A0E0000ED11915
:0E058E0002E10F0ED0199DE0D2C000F0120065
:10059C000B6A0A6A096A00500402F4CF09F0F3CF1F
:1005AC0008F001500502F4CF0BF0F3CF0AF0005025
:1005BC000502F3500926F4500A22E86A0B22015076
:1005CC000402F3500926F4500A22E86A0B2208C0F0
:1005DC0000F009C001F00AC002F00BC003F01200D9
:1005EC00220E0C6E086A096A0A6A0B6A0C06D8B4E9
:1005FC001FD0D8900B320A32093208320332023241
:10060C0001320032D8A0F2D70C06D8B409D004506D
:10061C0008260550092206500A2207500B22EAD759
:10062C00045008260550092206500A2207500B22B6
:02063C001200AA
:10063E00436A446A456A466A476A486A496A4A6A28
:10064E004B6A4C6A4D6A4E6A4F6A506A516A526AD8
:10065E00646A656A666A676A686A696A6A6A6B6A00
:10066E006C6A6D6A6E6A6F6A706A716A726A736AB0
:02067E00120068
:100680000001B76BB86B4ED0B76BB86B7BD0010E67
:10069000B76F000EB86F76D0020EB76F000EB86F4E
:1006A00071D0030EB76F000EB86F6CD0040EB76F29
:1006B000000EB86F67D0050EB76F000EB86F62D02E
:1006C000060EB76F000EB86F5DD0070EB76F000E45
:1006D000B86F58D0080EB76F000EB86F53D0090E20
:1006E000B76F000EB86F4ED00A0EB76F000EB86F1E
:1006F00049D00B0EB76F000EB86F44D00C0EB76F19
:10070000000EB86F3FD00D0EB76F000EB86F3AD025
:100710000E0EB76F000EB86F35D00F0EB76F000E0C
:10072000B86F30D0B651300AAFE0B651310AAFE001
:10073000B651320AB1E0B651330AB3E0B651340AC9
:10074000B5E0B651350AB7E0B651360AB9E0B65150
:10075000370ABBE0B651380ABDE0B651390ABFE0EE
:10076000B651410AC1E0B651420AC3E0B651430A4C
:10077000C5E0B651440AC7E0B651450AC9E0B651D2
:0E078000460ACBE0B7C000F0B8C001F012008E
:10078E000001BA6BBB6BBC6BBD6B4E0EBE6F4E0EDB
:10079E00BF6F4E0EC06F4E0EC16F4E0EC26F4E0E1D
:1007AE00C36F010EC46F000EC56FC66BC76BC86BEF
:1007BE00C96B000E006EB91908E10050B81905E1B9
:1007CE000050B71902E1B651000A03E1300ED06FA6
:1007DE008BDD800E006E800E0001B919005C08E101
:1007EE00B851000805E1B751000802E1B651000802
:1007FE0073E2080E046E000E056E066E076EB6C02E
:10080E0000F0B7C001F0B8C002F0B9C003F07BDD54
:10081E0008C000F009C001F00AC002F00BC003F0DE
:10082E0000C0CCF001C0CDF002C0CEF003C0CFF0BE
:10083E00CCC000F0CDC001F0CEC002F0CFC003F0AE
:10084E00C4C004F0C5C005F0000E0001C5BFFF0E08
:10085E00066E076EC4DE0050BA270150BB2302504D
:10086E00BC230350BD23080E046E000E056E066EEB
:10087E00076EB6C000F0B7C001F0B8C002F0B9C044
:10088E0003F041DD00C0B6F001C0B7F002C0B8F011
:10089E0003C0B9F0C4C000F0C5C001F00A0E046E6A
:1008AE00000E056E74DE00C0C4F001C0C5F0BE0EB1
:1008BE000001C825CA6F000EC921CB6FCCC0D0F085
:1008CE00CDC0D1F0CDDDCAC0E1FFCBC0E2FF00C08C
:1008DE00E6FFC84BC92B7DD7C66BC76B800EC719F9
:1008EE00006E800EC919005C02E1C851C65D2AE295
:1008FE00010EC85D006E000EC959016EC651005E34
:10090E00C751015ABE0E0024E96E000E0120EA6E98
:10091E00EE504E0A13E0C651C85D006EC751C9595C
:10092E00016E010E005E000E015ABE0E0024E96E2D
:10093E00000E0120EA6EEECFD0F0D6DC0001C64BE1
:0E094E00C72BCCD7BAC000F0BBC001F012001E
:10095C000001BA6BBB6BBC6BBD6B010EBE6F000EA6
:10096C00BF6F0001800E006E800EB919005C08E1AB
:10097C00B851000805E1B751000802E1B651000872
:10098C004CE20A0E046E000E056E066E076EB6C0C3
:10099C0000F0B7C001F0B8C002F0B9C003F0B4DC8D
:1009AC0008C000F009C001F00AC002F00BC003F04F
:1009BC00BEC004F0BFC005F0000E0001BFBFFF0EAB
:1009CC00066E076E0DDE0050BA270150BB23025095
:1009DC00BC230350BD230A0E046E000E056E066E7A
:1009EC00076EB6C000F0B7C001F0B8C002F0B9C0D5
:1009FC0003F08ADC00C0B6F001C0B7F002C0B8F05A
:100A0C0003C0B9F0030E006E005006E00001BE37C3
:100A1C00BE91BF37FF0FF9D7A4D7BAC000F0BBC047
:040A2C0001F01200C3
:100A30008998030E0C6E970E0D6E0D2EFED70C2EA0
:0E0A4000FCD700000000B6C0D3F014DC12009A
:100A4E008998898A030E0C6E970E0D6E0D2EFED7A9
:100A5E000C2EFCD7000000008C9E8C9C8C8A8C88FF
:100A6E00899A030E0C6E970E0D6E0D2EFED70C2E60
:080A7E00FCD70000000012008B
:100A86000001B86BB851B625E96E000EB721EA6EC3
:100A9600EE50000A0CE0B851B625E96E000EB721FB
:100AA600EA6EEECFD0F024DC0001B82BEBD71200B3
:100AB600948C948E100EAF6E200EAC6E900EAB6EB4
:020AC60012001C
:100AC8000F0EC16E929A9298956A340E0C6EF10EC2
:100AD8000D6E0D2EFED70C2EFCD700000000B3DFE4
:100AE8001A0E0D6E0D2EFED70000ADDF1A0E0D6E1C
:100AF8000D2EFED70000A7DF280E0001B66F94DF89
:100B0800060E0C6E300E0D6E0D2EFED70C2EFCD779
:100B180000000F0E0001B66F87DF060E0C6E300E58
:100B28000D6E0D2EFED70C2EFCD70000010E000115
:100B3800B66F7ADF060E0C6E300E0D6E0D2EFED7D8
:100B48000C2EFCD70000060E0001B66F6DDF1200F8
:100B58000900F5CFE6FF0006FBE10106F9E1120006
:100B68000001AE6BAF6BB06BB16B000E006E9019ED
:100B780008E100508F1905E100508E1902E18D51EE
:100B8800010A09E189C07CF08AC07DF08BC07EF043
:100B98008CC07FF063D0000E006E901908E1005001
:100BA8008F1905E100508E1902E18D51020A1CE1EE
:100BB80089C000F08AC001F08BC002F08CC003F03D
:100BC8000A0E046E000E056E066E076E0BDD85516B
:100BD80000247C6E865101207D6E875102207E6E36
:100BE800885103207F6E3AD089C000F08AC001F096
:100BF8008BC002F08CC003F0640E046E000E056E0C
:100C0800066E076EEFDC00C0B2F001C0B3F002C0A0
:100C1800B4F003C0B5F085C000F086C001F087C00D
:100C280002F088C003F00A0E046E000E056E066E10
:100C3800076ED8DC0050B2257C6E0150B3217D6E62
:100C48000250B4217E6E0350B5217F6E81517C26FF
:100C580082517D2283517E2284517F22000E006EB4
:100C6800A01908E100509F1905E100509E1902E102
:100C78009D51010A09E199C0A2F09AC0A3F09BC056
:100C8800A4F09CC0A5F063D0000E006EA01908E186
:100C980000509F1905E100509E1902E19D51020A7A
:100CA8001CE199C000F09AC001F09BC002F09CC002
:100CB80003F00A0E046E000E056E066E076E92DCD7
:100CC80095510024A26F96510120A36F97510220DD
:100CD800A46F98510320A56F3AD099C000F09AC02C
:100CE80001F09BC002F09CC003F0640E046E000E7D
:100CF800056E066E076E76DC00C0B2F001C0B3F078
:100D080002C0B4F003C0B5F095C000F096C001F081
:100D180097C002F098C003F00A0E046E000E056E2C
:100D2800066E076E5FDC0050B225A26F0150B3213A
:100D3800A36F0250B421A46F0350B521A56F915140
:100D4800A2279251A3239351A4239451A523000EC3
:100D5800006EA51908E10050A41905E10050A31977
:100D680002E1A251000A10E1A1512F0A0DE13C0E47
:100D7800B66F000EB76F83DE00000000010EB66F7D
:100D880053DE536A58DCBAD07CC0B6F07DC0B7F0E9
:100D98007EC0B8F07FC0B9F0DDDD00C0A6F001C0AC
:100DA800A7F0000E01BEFF0E0001A86FA96FA2C038
:100DB800B6F0A3C0B7F0A4C0B8F0A5C0B9F0CADDBA
:100DC80000C0AAF001C0ABF0000E01BEFF0E00018A
:100DD800AC6FAD6F54D0AA51A625AE6FAB51A72109
:100DE800AF6FAC51A821B06FAD51A921B16F54D0EC
:100DF800A6C0AEF0A7C0AFF0A8C0B0F0A9C0B1F0CF
:100E0800AA51AE5FAB51AF5BAC51B05BAD51B15BBA
:100E180043D0A6C000F0A7C001F0A8C002F0A9C046
:100E280003F0AAC004F0ABC005F0ACC006F0ADC03A
:100E380007F0F6EC02F000C0AEF001C0AFF002C05F
:100E4800B0F003C0B1F028D0AAC004F0ABC005F0E0
:100E5800ACC006F0ADC007F0A6C000F0A7C001F016
:100E6800A8C002F0A9C003F08AEC01F000C0AEF0FF
:100E780001C0AFF002C0B0F003C0B1F00DD0000166
:100E8800A1512B0AA8E0A1512D0AB2E0A1512A0ACA
:100E9800C0E0A1512F0AD8E00001800EB119006E00
:100EA800800E005C08E1000EB05D05E1000EAF5D4C
:100EB80002E1000EAE5D19E22D0ED06F7BEC01F061
:100EC800006A016A026A036A0001AE51005EAF510E
:100ED800015AB051025AB151035A00C0AEF001C0D4
:100EE800AFF002C0B0F003C0B1F0AEC0B6F0AFC012
:0E0EF800B7F0B0C0B8F0B1C0B9F045DC1200E0
:100F0600ABA203D08B9A00008B8AAECF00F0120002
:100F1600DDD17CC0D0F07BEC01F0800E5218006E63
:100F2600800E005C08E1000E515C05E1000E505C8D
:100F360002E1030E4F5CD8B09AD07C502B0AD8B48D
:100F460096D07C502D0AD8B492D07C502A0AD8B4B8
:100F56008ED07C502F0AD8B48AD07C50380AD8B4A8
:100F660086D07C50390AD8B482D07C503D0AD8B499
:100F76007ED07CC0B6F040EC03F000C07DF0000EE1
:100F8600006E521808E10050511805E10050501843
:100F960002E14F50020A1CE17DC043F0000E446E90
:100FA600456E466E010E4F24006E000E5020016EF7
:100FB600000E5120026E000E5220036E00C04FF04C
:100FC60001C050F002C051F003C052F0010E536E42
:100FD600000E006E521808E10050511805E100504D
:100FE600501802E14F50010A1AE17DC047F0000E89
:100FF600486E496E4A6E010E4F24006E000E502058
:10100600016E000E5120026E000E5220036E00C0CB
:101016004FF001C050F002C051F003C052F0000E74
:10102600006E521808E10050511805E100505018A2
:1010360002E14F50000A1AE17DC04BF0000E4C6EE3
:101046004D6E4E6E010E4F24006E000E5020016E46
:10105600000E5120026E000E5220036E00C04FF0AB
:1010660001C050F002C051F003C052F02FD07C50A6
:101076002B0A0AE07C502D0A07E07C502A0A04E07D
:101086007C502F0A01E014D0800E006E800E52189C
:10109600005C08E15150000805E15050000802E1EB
:1010A6004F50000805E27CC042F0020E536E0ED08F
:1010B60000012E0EB66F000EB76FE2DC00000000D6
:1010C600010EB66FB2DC536A1FEC03F00AD17CC086
:1010D600D0F07BEC01F0800E7318006E800E005C81
:1010E60008E1000E725C05E1000E715C02E1030E80
:1010F600705CD8B09FD07C502B0AD8B49BD07C5063
:101106002D0AD8B497D07C502A0AD8B493D07C50F4
:101116002F0AD8B48FD07C50380AD8B48BD07C50E4
:10112600390AD8B487D07C503D0AD8B483D07CC065
:10113600B6F040EC03F000C07DF0000E006E7318B0
:1011460008E10050721805E10050711802E1705074
:10115600020A21E100017DC064F0000E656E666E34
:10116600676E010E7024006E000E7120016E000E77
:101176007220026E000E7320036E00C070F001C074
:1011860071F002C072F003C073F0030E536E3D0E91
:10119600D06F7BEC01F0000E006E731808E1005072
:1011A600721805E10050711802E17050010A1AE147
:1011B6007DC068F0000E696E6A6E6B6E010E70245B
:1011C600006E000E7120016E000E7220026E000E7F
:1011D6007320036E00C070F001C071F002C072F09F
:1011E60003C073F0000E006E731808E10050721809
:1011F60005E10050711802E17050000A1AE17DC045
:101206006CF0000E6D6E6E6E6F6E010E7024006EC9
:10121600000E7120016E000E7220026E000E732009
:10122600036E00C070F001C071F002C072F003C01E
:1012360073F024D07C503D0A12E1800E006E800EC1
:101246007318005C08E17250000805E1715000084F
:1012560002E17050000803E2030E536E0FD0220E17
:101266000001B66F000EB76F0BDC00000000010E28
:10127600B66F18EC05F0536A1FEC03F032D07CC051
:10128600D0F07BEC01F07C502B0A0AE07C502D0A52
:1012960007E07C502A0A04E07C502F0A01E005D0C2
:1012A6007CC042F0020E536E10D0160E0001B66FCF
:1012B600000EB76F43EC05F000000000010EB66F9C
:1012C60018EC05F0536A1FEC03F00BD05350000ADC
:1012D600D8B41FD65350020AD8B4F9D65350010ACF
:0412E600CEE0120044
:1012EA0000C002F001C003F08A8A8A8C8A8E8A982A
:1012FA000000000081CF00F0000E016E0450001AB9
:10130A000550011AFF0E0016FF0E01160450001AAE
:10131A000550011A00C004F001C005F08A888A9AB3
:10132A000000000081CF00F0000E016E0650001A86
:10133A000750011AFF0E0016FF0E01160650001A7A
:10134A000750011A00C006F001C007F08A8A8A9C79
:10135A000000000081CF00F0000E016E0850001A54
:10136A000950011AFF0E0016FF0E01160850001A46
:10137A000950011A00C008F001C009F08A8C8A9E3F
:10138A000000000081CF00F0000E016E0A50001A22
:10139A000B50011AFF0E0016FF0E01160A50001A12
:1013AA000B50011A00C00AF001C00BF08A8E080E19
:1013BA00006E02C0E1FF03C0E2FF040EE96E000EF8
:0C13CA00EA6EEECFE6FF0006FCE1120028
:1013D6004E0E0001846FFF0E7C14006E7DC001F07E
:1013E600FF0E011600C002F00CD02B0E846F15D034
:1013F600330E846F12D0320E846F0FD0310E846F8D
:101406000CD00250E70AF1E00250EB0AF1E002507C
:10141600ED0AF1E00250EE0AF1E0FF0E7E14006ED6
:101426007FC001F0FF0E011600C002F00CD02D0E99
:10143600846F15D0360E846F12D0350E846F0FD0A0
:10144600340E846F0CD00250D70AF1E00250DB0A4A
:10145600F1E00250DD0AF1E00250DE0AF1E0FF0E93
:101466008015006E81C001F0FF0E011600C002F06B
:101476000CD02A0E846F15D0390E846F12D0380E18
:10148600846F0FD0370E846F0CD00250B70AF1E08C
:101496000250BB0AF1E00250BD0AF1E00250BE0A5A
:1014A600F1E0FF0E8215006E83C001F0FF0E0116FB
:1014B60000C002F00CD02F0E846F15D03D0E846F45
:1014C60012D0300E846F0FD0430E846F0CD00250B2
:1014D600770AF1E002507B0AF1E002507D0AF1E062
:0C14E60002507E0AF1E084C000F0120009
:1014F20099EC0BF0D38CD38AD38864EC05F00F0EF1
:10150200936E946A8B6AC69A5BEC05F0820E0C6E3F
:10151200DD0E0D6E0D2EFED70C2EFCD70000000046
:10152200080E006E5C0EE16E000EE26E540EE96E65
:10153200000EEA6EEECFE6FF0006FCE1536AE00E13
:10154200D66EB10ED76E880ED56EF28AF28C740EFC
:10155200006E000E016EC8DE080E006E5C0EE16EBB
:10156200000EE26E740EE96E000EEA6EEECFE6FF3A
:101572000006FCE1FF0E5C14036E5DC004F0FF0E7A
:101582000416FF0E5414016E55C002F0FF0E02162F
:101592000450021802E1015003183DE1FF0E5E14EF
:1015A200036E5FC004F0FF0E0416FF0E5614016EA8
:1015B20057C002F0FF0E02160450021802E1015059
:1015C200031829E1FF0E6014036E61C004F0FF0EE0
:1015D2000416FF0E5814016E59C002F0FF0E0216D7
:1015E2000450021802E10150031815E1FF0E6214C3
:1015F200036E63C004F0FF0E0416FF0E5A14016E50
:101602005BC002F0FF0E02160450021802E1015004
:10161200031801E107D0D59EE00ED66EB10ED76E4B
:10162200F294D58E080E006E540EE16E000EE26E3C
:101632005C0EE96E000EEA6EEECFE6FF0006FCE1FC
:10164200F2A41BD0D59EF2943A4A3B2A080E006EB1
:101652007C0EE16E000EE26E5C0EE96E000EEA6E2A
:10166200EECFE6FF0006FCE1B5DE00C015F000504B
:101672004E0A03E015C07CF04DDC3AC08BFF9EAAF7
:1016820006D040DC00C015F000C07CF043DC1550F1
:10169200430A07E1010E0001B66F18EC05F01FECDA
:1016A20003F05350030A23E1100E006E810EE16E27
:1016B200000EE26E430EE96E000EEA6EEECFE6FF1A
:1016C2000006FCE1100E006E910EE16E000EE26E5D
:1016D200640EE96E000EEA6EEECFE6FF0006FCE154
:1016E20042C0A1F0B4EC05F01FEC03F0536A2FD70F
:0216F200FFD720
:1017320010EE15F02D0E006E010E016EF40EF66E17
:0E174200160EF76E000EF86EACEC05F01200FD
:0116F4004EA7
:0C16F50057726F6E6720496E70757400AC
:0C17010057726F6E6720496E707574009F
:0C170D0057726F6E6720496E7075740093
:021719000000CE
:06171B004572726F7200BE
:0417210000000000C4
:061725004E4E4E4E4E4EEA
:02172B000100BB
:02172D000000BA
:02172F000000B8
:020000040030CA
:0D000100021F1EFF8381FF0FC00FE00F40A4
:00000001FF
